S00F00004D6567613634342E73726563FD
S11300000C943E000C9453000C9453000C94530035
S11300100C9453000C9453000C9453000C94530010
S11300200C9453000C9453000C9453000C94530000
S11300300C9453000C9453000C9453000C945300F0
S11300400C9453000C9453000C9453000C945300E0
S11300500C9453000C9453000C9453000C945300D0
S11300600C9453000C9453000C9453000C945300C0
S11300700C9453000C9453000C94530011241FBE91
S1130080CFEFD0E1DEBFCDBF15E0A0E0B1E0EEECF4
S1130090F3E002C005900D92A03CB107D9F70E948D
S11300A0D2010C94E5010C9400002F982E988BB982
S11300B02D9A2D9808952F9A2E988BB92D9A2D98B4
S11300C00895CF93159A149A88EB0E94550080E402
S11300D00E945500C0E481E00E945B00C150D9F742
S11300E08FEB0E94550080E40E945500C0E480E834
S11300F00E945B00C150D9F7C8EB1598149A8C2F55
S11301000E9455008FE70E9455008FEF0E945B000C
S1130110159A14988C2F0E94550080E40E94550073
S11301208FEF0E945B00CF5FC03C39F7CF910895F9
S1130130CF93DF93159A149A88EB0E94550080E4BC
S11301400E945500D8EB8D2F0E945500C0E480E03A
S11301500E945B00C150D9F7DF5FD03CA1F7DF916B
S1130160CF910895AF92BF92DF92EF92FF920F93D7
S11301701F93CF93DF938C01005C1F4F5C0120EC35
S1130180A21A2BEFB20A0F2EF8EBDF2EF02D159AE0
S113019014988D2D0E94550080E40E945500E801BA
S11301A0C054D10989910E945B000C171D07D1F737
S11301B01598149A8D2D0E94550080E40E945500D4
S11301C0780180E4E80EF11CE80189910E945B004B
S11301D0CE15DF05D1F7D39400581F4F0A151B0520
S11301E0B1F6DF91CF911F910F91FF90EF90DF90C7
S11301F0BF90AF900895CF93DF93159A149A8FE32D
S11302000E94550088EB0E94550080EC0E94550026
S113021080E40E945500D8EB8D2F0E94550080E4A5
S11302200E945500C0E485E50E945B00C150D9F7E7
S1130230DF5FD03C89F7DF91CF910895CF93DF93AF
S11302408FE30E94550088EB0E94550080EC0E94C9
S1130250550080E40E945500D8EB8D2F0E94550074
S113026080E40E94550080EC0E945500C0E280E0CA
S11302700E945B008FEF0E945B00C150C1F7DF5FFB
S1130280D03C59F7DF91CF910895DF92EF92FF921E
S11302900F931F93CF93DF930F2EF8EBFF2EF02DC8
S11302A0F80EC42FD52F0F2EFAEBEF2EF02DE80EFB
S11302B06894DD24D6F8D60E8F2D0E9455008D2D1E
S11302C00E9455008E01005F1F4F89910E945B00C0
S11302D0C017D107D1F7F394E801FE10EDCFDF91F9
S11302E0CF911F910F91FF90EF90DF9008952C987C
S11302F02C9A159A149A8EE30E94550088EB0E945A
S1130300550080EC0E94550080E40E9455008FE364
S11303100E9455000895CF93DF93EC010E9498004A
S11303200E9461002097E9F4159A149840EA55E078
S113033060E283E00E94450140E855E060E383E029
S11303400E9445011598149A40E655E060E083E068
S11303500E94450140E455E060E183E00E944501CC
S11303601EC02197E1F4159A149840EA55E060E222
S113037083E00E94450140E855E060E383E00E9489
S113038045011598149A40E255E060E083E00E942C
S1130390450140E055E060E183E00E944501DF91C2
S11303A0CF9108950E94770180E091E00E94B2000D
S11303B080E090E00E948B010E94FB000E941E01DD
S11103C081E090E00E948B01EDCFF894FFCF16
S11303CEFFFF0303030303030303030303030303F3
S11303DE030383030303038303030303030303835B
S11303EE03030303030303C303030303C30303034B
S11303FE030303C3030303030303030303030343BB
S113040EC3030303030303030303030303030303EA
S113041E03030343C303030303030303030303039A
S113042E030303C30303030383430303C30303034A
S113043E0303030303030303030303030303FFFF82
S113044EFFFF00000000000000000000000000009C
S113045E083020E31800A6938D8DF19185858B517C
S113046E00000000080808FF08080880FF0000FFCD
S113047E010000FF00000000000202F2121212122C
S113048EFE12121212FA02010000000000262222AD
S113049E2222E23A29A2A2222222262300000000CE
S11304AE201C00FF08160C067F1090887F444241E2
S11304BE7900000000000000000000000000FFFFB3
S11304CEFFFF00000000000000000000000000001C
S11304DE00347F002010080402017F40010608103A
S11304EE10000000080C044742221A070000000FF7
S11304FE0000003F000000000000001F000000008C
S113050E7F000008181F00000000000020201008C3
S113051E0423302826232020242870000000000005
S113052E20100E01020C0C0404047F7F0404040248
S113053E0200000000000000000000000000FFFFA9
S113054EFFFF000000000000F02020202022FE20EB
S113055E202020F01000000000000000000404041D
S113056E0404E46424140C0406800000000000104B
S113057E101090F0B08F92909090D050080C08000C
S113058E000000FE0444B40E0000FC2424242424A1
S113059EFE00000000000000008060180C00000047
S11305AE1E20C0800000000000000040444444446B
S11305BE4444444424240404FC0000000000FFFFCF
S11305CEFFFF0000000000003F1111111111FF1177
S11305DE1111111F00E000000000010101010101D1
S11305EE0101FF01010101010101010000000404E8
S11305FE020100FF242424242424FF000000000010
S113060E000000FF0010301F0800FF818F71518918
S113061E8784000000000402018040300886818037
S113062E90A0C0810303000000000000003F1111E0
S113063E1111113F01000000FF0000000000FFFF38
S113064EFFFF00000000008080C0000000000101D8
S113065E81414141414181000000008040404040C1
S113066E8103010040C040000040C0400000000073
S113067E80404241408000000101030080C0000020
S113068E00000003000000000001010040C04040D3
S113069E4081000000000080404141418100008003
S11306AE404040C3404040800000008040404080B5
S11306BEC000000000000103010000000000FFFF65
S11306CEFFFF00000000000000FF0000000000001B
S11306DE03008040201807000000C72810101010D7
S11306EE28C700000001C6386C8300000000FC130C
S11306FE0808080810E100006058464140FF4040D9
S113070E00000000000000000000000000FF0000D8
S113071E0000837C0000FE010000000001FE0001C9
S113072E000000FF000000010000870808101020E0
S113073EC100000000000000000000000000FFFFE8
S113074EFFFFC0C0C0C0C0C4C4C7C4C4C0C0C0C002
S113075EC6C5C4C4C4C4C7C0C0C0C1C2C4C4C4C452
S113076EC2C1C0C0C4C6C5C0C0C5C6C4C0C0C1C253
S113077EC4C4C4C4C2C1C0C0C0C0C0C4C4C7C4C43D
S113078EC0C0C0C0C0C0C0C0C0C0C0C0C4C7C4C444
S113079EC4C2C1C0C0C0C0C3C4C4C4C4C3C0C0C02A
S11307AEC0C0C4C7C4C0C0C0C0C0C7C2C4C4C4C211
S11307BEC1C0C0C0C0C0C0C0C0C0C0C0C0C0FFFFA8
S11307CE0000FF88482808807F8888888484E00099
S11307DE04040404040404FF0404040404040400D0
S11307EE00908CA4A4A4A5A6A4A4A4A4948C0400F0
S11307FE0080402018070000003F40404070000079
S113080E1090701F12F000207028272228702000EC
S113081E4021120C060930007F212121217F000086
S113082E4042424242FE42424242FE424242420062
S113083E004020100C03000000007F0000000000A8
S113084E4042DC08009090909090FF10121C100013
S113085E00007F201020201F1010010618207800A1
S113086E0831866000FE02F202FE00F80000FF006E
S113087E04FC03008047300F1067000740807F00A0
S9030000FC
